:10000000F8FF002011040000E5290000E5290000A8
:10001000E5290000E5290000E5290000E5290000A8
:10002000E5290000E5290000E5290000E529000098
:10003000E5290000E5290000E5290000E529000088
:10004000E5290000E5290000E5290000E529000078
:10040000FFFFFFFFFFFFFFFFFFFFFFFFFEFFFFFFFD
:1004100062B603F0FDF8FEE72DE9F0439FB00FF65A
:10042000BC36269CDFF81C8902918DF83B400021E8
:100430000B914FF0FF37044691461D460AE019F82C
:10044000011B0298A0470028029000F0A4800B989E
:10045000401C0B9099F8000050B12528EFD10020E6
:100460000021059006910790089109900A9103E0F8
:100470000B98A3E041F0010119F8010F2028F9D0F1
:1004800023280CD02B2804D02D2805D0302809D0C3
:1004900083E041F00201EFE741F00401ECE741F0B5
:1004A0000801E9E741F01001E6E700200D900AE0BD
:1004B0000D98404505DA00EB800302EB4302303A29
:1004C0000D9209F1010999F80020A2F130000A28E3
:1004D000EED399F800002E2818BF0C9726D119F8F2
:1004E000010F2A2808D12868286009F1010950F86D
:1004F000042B28600C9219E02D280CBF19F8010B71
:10050000002000220C920BE040B90C9A424505DA1B
:1005100002EB820203EB4203303B0C9309F1010929
:1005200099F80030A3F130020A2AEDD3ADF8381063
:10053000304699F8001000F085FD08B119F8010B5C
:100540008DF83A009DF83A00682804BF99F8001029
:10055000682903D162208DF83A0008E06C2804BFB6
:1005600099F800006C2804D171218DF83A1009F136
:10057000010910A804902A4619F8013B6946204653
:1005800000F05CF838B910AA6946204600F084F9FA
:1005900000287FF55FAF384610E02A2885D12A6809
:1005A0002A6052F8040B2A6000280D9003D54042BF
:1005B0000D9041F0040109F101098AE71FB0BDE87F
:1005C000F083622820D0682811D06A2803D06C28D4
:1005D00027D0712825D10868C01D20F007000860C9
:1005E000D0E9002308300860194610467047002AF9
:1005F0000A680A60106803D0121D0A6000B217E092
:10060000121D0A6080B217E0002A0A680A601068AA
:1006100003D0121D0A6040B20AE0121D0A60C0B287
:100620000AE0002A0A680A60106803D0121D0A60F6
:10063000C1177047121D0A600021704770B51C4633
:100640000D46B4F125002E69114600F013812038C3
:10065000022865D9133841D00B3816D0401E1ED061
:10066000401E02285CD9001F19D0401F00F0838073
:10067000401E33D0401E00F0CD80C01E00F0D88058
:10068000801E2BD0C01E29D0FAE06869421C6A6126
:100690000A680A6052F8043B0A603354FAE095F89D
:1006A0003A000122FFF78DFFC5E9000100239942BE
:1006B00004DA6869411C69612D210DE0288F8107EA
:1006C00004D56869411C69612B2105E0C00722D56A
:1006D0006869411C6961202131541CE095F83A0099
:1006E0000022FFF76EFFC5E9000195F83800010709
:1006F00011D5D5E900230020834208BF82420AD0E9
:1007000044F02000782806D1686930213154401C1B
:10071000411C69613454214668693044E86083E0D3
:100720000868C01D20F007000860D0E900230830E9
:100730000860C5E90023D5E90001C80F04D0686945
:10074000411C69612D210DE0288F810704D568695E
:10075000411C69612B2105E0C00704D56869411C73
:1007600069612021315468693044E8602146284697
:1007700000F0C4F98EE005F13A02507820B14FF054
:10078000FF340FF660005EE01078622808D0682819
:1007900024D06A2812D06C282ED071280ED02BE0DD
:1007A0000A680A6052F8040B0A6020B94FF0FF345F
:1007B0000FF6480047E0E96A01706BE00A680A60DA
:1007C00052F8040B0A6020B94FF0FF340FF62C00EA
:1007D00039E0EA6AD317C0E900235BE00A680A60DF
:1007E00052F8040B0A6020B94FF0FF340FF60C00EA
:1007F00029E0E96A01804DE00A680A6052F8040BBA
:100800000A6020B94FF0FF340FF2F0701BE0E96A84
:1008100001603FE00A680A6052F8040B0A60002198
:10082000C5E90001EE607821284600F0BBF831E010
:100830000868086050F8044B0860EC603CB94FF061
:10084000FF340FF2D07000F009FC201A70BD2E6B3F
:10085000002E04D5204600F023FC044608E0324672
:100860000021204600F038FC002814BF041B344649
:10087000AC610FE06869411C69612521315409E0D0
:100880006969481C686125227254210002D0411C0C
:1008900069613454002070BD2DE9FC410F460646C5
:1008A000796B7869BC6A091A386A091AB869091A31
:1008B000786A091AF869091A97F838000C1B410779
:1008C00090460FD42021002C8DF800100ADD25461B
:1008D00001236A463946304600F068FB00285DD1A6
:1008E0006D1EF5D17B6942463946304600F05EFB0D
:1008F000002853D130208DF800003D6A002D09DD1D
:1009000001236A463946304600F050FB002845D1A5
:100910006D1EF5D1BB69FA683946304600F046FBDA
:1009200000283BD130208DF800007D6A002D08DDC5
:1009300001236A463946304600F038FB70BB6D1E15
:10094000F6D1F868B969FB6942183946304600F0BB
:100950002DFB18BB30208DF80000BD6A002D08DD8E
:1009600001236A463946304600F020FBB0B96D1EBF
:10097000F6D197F8380041070DD52021002C8DF8CD
:10098000001008DD01236A463946304600F00EFBB0
:1009900020B9641EF6D10020BDE8F6814FF0FF308B
:1009A000BDE8F6812DE9FC4707468A463E69BAF163
:1009B0006F0F08BF082405D04AF02001782914BF22
:1009C0000A2410243C25D7E90023BAF1640F18BF8C
:1009D000BAF1690F9046994606D100218B4203DA9D
:1009E000D8F1000869EB49090020814508BF80451E
:1009F0001FD1386BE8B9082C4CD197F838000107A3
:100A000048D530203B2586F83B0043E000280ED532
:100A100097F8380000F01400102808D17A6B786934
:100A2000121A386A121A511A0029C8BF3962BDE871
:100A3000F3878DF800A0404649462246E31700F0B0
:100A400077FB3032D0B26D1E3A28019504DB9DF859
:100A50000000A0F151018A187255404649462246CD
:100A6000E31700F065FB804689460020814508BFFA
:100A7000804503D0F86871198842DCD3082C09D16D
:100A800097F83800010705D5715D302902D06D1E39
:100A900030207055C5F13C01B9617019F860386BB0
:100AA0008142B3DA411A39624FF6EF70398F014053
:100AB0003987BDE8F3872DE9D04306460F46144633
:100AC0004FF00008DFF8809212E0E00707D54246B9
:100AD0004B463046394600F043FC06460F4640463A
:100AE000494642464B4600F03BFC6410804689462E
:100AF000002CEAD130463946BDE8D0832DE9F84FC5
:100B000005468CB0286BD5E9009B00288A4602AFC9
:100B100002D50620286305E001BF4AF020006728BF
:100B200001212963D5E9008460004015401C0DD1E6
:100B300021030BD0AAF1610103201A29A86102D276
:100B40000FF2EC4110E00FF2EC410DE060004015B7
:100B5000401C0ED121030CD1AAF1610103201A29F6
:100B6000A86116D30FF2D441E868032200F0CAFC52
:100B7000E4E024F00043B3F5801F28F0000211D216
:100B80000026B34208BFB242019605D14046214635
:100B900018E00FF2A441E7E701AA4046214600F021
:100BA00005FD08E069486A4900EB135001900C40CC
:100BB000684940462143019B674E47F29752534391
:100BC00093FBF6F6C5E9000120F0000221F0004396
:100BD0000020834204BF8242002300F0A7804846E1
:100BE00059460022002300F019FD38BF8BF0004B5E
:100BF0003246D2F10702019603DD5946FFF75BFF4B
:100C00000AE0524200205549FFF755FF02460B46C5
:100C10004846594600F01AFD81464AF020000090EF
:100C20006628286B06BF019F0A3706273F18142F36
:100C3000C8BF142730208B468DF808000DF1090637
:100C4000002F34DD4846594600F024FE01460B468D
:100C500006F1080204200A26B3FBF6F606EB86042A
:100C6000A3EB4403303302F8013C0A23B6FBF3F351
:100C700003EB8304A6EB44063036401E02F8026DF7
:100C8000E9D1083F002F02F10806D9DD084600F03F
:100C900015FE02460B464846594600F01DFE304CF4
:100CA0000022234600F05CFB81468B46CAE70DF12B
:100CB0000900361A0DF1090704E00198401E761E5E
:100CC00001907F1C38783028F7D00099662902D12E
:100CD0000198401C03E065290CBF012000202B6B0C
:100CE000C3189E42B8BF731E002B1ED4B34204DA51
:100CF000F85C3528A8BF392000DA302019467A1E62
:100D000002EB010900E05B1E19F801B9491E834599
:100D1000F9D0392802D1785C401C7854002904D5D8
:100D20000198401C17465B1C0190019800B200908E
:100D30001BB23A465146284600F014F80DB0BDE803
:100D4000F08F0000CBCCCC0C0000244002FCFFFF55
:100D5000FFFF0F800000E03FA08601000000F03F91
:100D600084D797412DE9F84783B005468A469146D6
:100D7000984600F023FEB8F1000F406A2F6B06780A
:100D800003DC4FF001080FF2B829BDF930404AF0FA
:100D90002000662808BF641C13D0672840F08F80AD
:100DA00014F1040F7ADBBC4278DA95F83800641C41
:100DB000010702D4B845B8BF474620B23F1A48BF22
:100DC00000270FFA84FAE868A969BAF1000F23DC5A
:100DD0004A1C30234354002F03DC95F838000107E8
:100DE00002D5E8688654521C17EB0A0FB8BF7C4244
:100DF00024B2E71960424745B8BFB846AA616862A5
:100E00000FFA88F4EC61E868AB6922464946184459
:100E100000F078FB3F1B18E022B29045084416DA38
:100E20004246494600F06EFBA8694044A861AAEB1F
:100E30000801002F696203DC95F838100A0704D511
:100E4000E9680E54E869401CE861AF6297E04946E2
:100E500000F058FBA869002F5044A8EB040803DCFD
:100E600095F838100A0702D5E9680E54401CA861AD
:100E70000FFA88F08742E868AB69B8BFB8460FFA46
:100E800088F209EB0A01184400F03CFBA8690FFA4C
:100E900088F10844A861781A686270E0B84504DAFD
:100EA00095F838100A0758BF47467F1E48BF0027ED
:100EB000BAF1670F0CBF4FF0650A4FF0450AA969F8
:100EC000EB68481CA861002F19F8012B5A5403DC69
:100ED00095F838100A0717D5E968431CAB610E5422
:100EE000002F11DDA8F1010630B28742E868B8BFD3
:100EF0003E4632B24946184400F004FBA86936B2B7
:100F00003018BF1BA8616F62E868A9690844002C0B
:100F100080F800A003D42B214170811C03E02D2117
:100F200041706442811C00206A460AE023460A247C
:100F300093FBF4F404EB8406A3EB460302F8013BB5
:100F4000401C24B2002CF1DC012806DC4AF020020F
:100F5000652A04BF302201F8012B48B9302001F87E
:100F6000010B07E0401E1DF80020303201F8012B74
:100F70000028F7DCE868AA691044091AE96195F8C5
:100F8000380000F0140010280DD16969A8694118D3
:100F9000686A4118E8694118A86A4118686B81427B
:100FA000BCBF411A296204B0BDE8F087F8B5054618
:100FB0000E4617461C46002074B117F8011BB06896
:100FC000A847B06030B1F06A401CF0620020641E97
:100FD000F3D1F2BD4FF0FF30F2BD0000686A6C74CF
:100FE0007A4C00007072696E74665F733A20256EE9
:100FF00020646973616C6C6F776564007072696EF0
:1010000074663A2062616420256E20617267756D96
:10101000656E74007072696E74665F733A20626107
:101020006420257320617267756D656E7400000021
:101030006E616E004E414E00696E6600494E46007C
:10104000300000000278C9B28A421AB11CBF10F801
:10105000012FF9E718BF00207047000080B508B9DC
:101060000FF21C0005490B681BB122220021984792
:1010700001E000F0A9FC222002BD0000540EFF1F79
:10108000636F6E73747261696E742068616E646CF4
:1010900065723A20626164206D65737361676500F3
:1010A00000F10103810704D010F8011B89B1810709
:1010B000FAD10268B2F10131914311F0803F04BFCF
:1010C00050F8042FF6E710F8011B11B110F8011BBE
:1010D000FBE7C01A70470000C9B2830706D0521E52
:1010E00022D310F8013B9942F7D11FE0083A13D3FD
:1010F00002F1040241EA012141EA014150F8043BB6
:10110000121F21BF4B40A3F1013C2CEA030C1CF041
:10111000803FF3D0C9B2001F083210F8013B521EC5
:1011200028BF91EA030FF8D818BF0120401E70476E
:10113000B3BBD9B1B2F5803F7DD2022A1ED98C460D
:10114000B1FBF2F102FB11C31B0443EA1043B3FBF2
:10115000F2FC02FB1C3380B240EA0343B3FBF2F023
:1011600002FB103240EA0C4000237047022A05D9E6
:101170008446B0FBF2F002FB10C270474AB105D1C1
:1011800000F0010249085FEA3000704700220023A6
:10119000704700F01DBC0B000200002100207047CA
:1011A000904271EB030CF6D3B3F5803F2FD2F0B52C
:1011B000B3FA83F7B1FA81F4A7F10F0E3D1B534048
:1011C000CEF1200602FA0EF2F3415340B5F10F07BB
:1011D00046D80F3C2C444140C4F12006A040F141C8
:1011E0004140B1FBF3F603FB1611A2FB0645001BC1
:1011F000A94102D2761E8018594180EA010221FAE3
:101200000EF362FA0EF200215A403046F0BD30B4BF
:10121000B1FBF3FC03FB1C11A2FB0C45001BA94115
:1012200003D2ACF1010C8018594130BC02460B4688
:10123000604600217047B2F1807F65D3F0B5B2FA05
:1012400082F7B1FA81F4C7F10F063D1B22FA06F3CB
:1012500007F1110EF24120355A40B5F10F07B8D908
:101260004140C4F12006A040F1414140B1FBF3FCF4
:1012700003FB1C11A2FB0C45001BA94103D2BCF1CE
:10128000010C801859410F2F12D30F3FC90341EAB7
:101290005041B1FBF3F603FB1611A2FB0645D4EB5C
:1012A000C030A94102D2761E8018594146EACC3C92
:1012B00007B34140C7F12006B840F1414140B1FBBE
:1012C000F3F603FB1611A2FB0645001BA94102D24F
:1012D000761E8018594180EA010221FA0EF3C7F107
:1012E000200462FA0EF20CFA07F05A402CFA04F1CC
:1012F0003043F0BD80EA010221FA0EF3002162FAC8
:101300000EF260465A40F0BD8C46B1FBF2F102FB92
:1013100011C31B0243EA1063B3FBF2FC02FB1C3354
:101320001B024CEA002043EA1063B3FBF2FC02FB11
:101330001C331B024CEA002043EA1063B3FBF2FCAF
:1013400002FB1C331B024CEA002043EA1063B3FB90
:10135000F2FC02FB1C324CEA002000237047000024
:10136000B0B581EA030C0CF0004C40F2FF7515EAB1
:1013700011541DBF15EA1357AC42AF4239E0E419CE
:1013800023EA455343F48013C90241F0004141EA86
:10139000505EC7021100A7FB020200284FF00000B8
:1013A000EEFB01204FF00001E3FB072118BF42F0E4
:1013B0000102401800214941E3FB0E01A4F58064BD
:1013C0000F0302D252004041494154F101046CDD47
:1013D000470872F1004250F1000051EB0451A1F5B1
:1013E00080115CBF41EA0C01B0BD4CEA0551002000
:1013F000B0BD05EA1357AC4214BFAF4241E050EA1A
:10140000410E1CBF52EA430E02E061460020B0BD0F
:1014100024423C441BD15FEA070EF6D0090302BF09
:1014200001460020AEF1140EB1FA81F7AEEB0704CD
:1014300001FA07FE0C37C7F1200100FA07F7C84090
:101440004EEA000E23EA455343F48013A2E733F03B
:101450000043B3FA83F704BFB2FA82FE77440B3F2E
:10146000E41BB7F1200E2FBF02FA0EF3BB40C7F109
:10147000200E22FA0EFE38BF43EA0E03BA40641C67
:1014800082E750EA410E14BF52EA430E6FF00001AA
:101490004FF4001717EB430F8ABF194617EB410FA4
:1014A000B5E74CEA05510020B0BDD4F10104B4F118
:1014B00020070FDAC4F12007520828BF42F00102CA
:1014C00010FA07F501FA07F7E1BF2A43E040384375
:1014D000E1400FE0352C98DCC7F1200452EA4002CD
:1014E00020FA07F218BF42F0010231FA07F0A140DA
:1014F0000A43002172F1004250F1000051EB0C014F
:10150000B0BD000062B38B0708D0521E11F8013B3A
:1015100000F8013B00F024808B07F6D1830740F0F0
:10152000208000BF103A07D330B4B1E83810103A29
:10153000A0E83810F9D230BC530724BFB1E8081036
:10154000A0E8081044BF51F8043B40F8043BD20720
:1015500024BF31F8022B20F8022B44BF0B78037014
:101560007047121F17D35B0009D151F8043B20F8D4
:10157000023B1B0C121F20F8023BF6D20BE051F885
:10158000043B00F8013B1B0A20F8023B1B0C121F16
:1015900000F8013BF3D238BF121D521E24BF11F8D0
:1015A000013B00F8013BF8D87047000010B5144625
:1015B00000F002F8226010BDC1F30A5343B14A00A3
:1015C00012F5001F28D2A3F2FE32A1EB02517047A0
:1015D00050EA410C20D001F0004C31EA0C01B1FA84
:1015E00081F204BFB0FA80F3D2180B3AB2F12003B3
:1015F0002CBF00FA03F1914041EA0C013EBFC2F159
:10160000200C20FA0CF319439040524240F2FD3373
:10161000D21A01EB03517047002270474FF4001CAF
:101620001CEB410F94BF1CEB430F09E041EA030C94
:1016300050EA4C0C52EA0C0C03D2994208BF90427B
:10164000704714BF8B42824270470000F0B540F2F1
:10165000FF7581EA030C0CF0004C15EA11541DBF14
:1016600015EA1357AC42AF42E5E0BC41C1F31301A8
:10167000C3F31303801A994143F4801304D2641E08
:101680004000494180185941C90241EA5051B1FB1B
:10169000F3F603FB1611A2FB0675D7EBC020A94198
:1016A00002D2761E80185941C90241EA5051B1FB5D
:1016B000F3FE03FB1E11A2FB0E75D7EBC020A94160
:1016C00003D2AEF1010E80185941890241EA9051CE
:1016D000760546EA8E2EB1FBF3F603FB1611A2FB4C
:1016E0000675D7EB8020A94102D2761E8018594199
:1016F000C90241EA50514EEA060EB1FBF3F603FB74
:101700001611A2FB0675D7EBC020A94102D2761EA6
:1017100080185941C90241EA5051B1FBF3F703FB6C
:101720001711A2FB0735D3EBC020A94167F10007D1
:101730000CBF004247F0010766F3D5274FEA1E3180
:10174000B80814F5806412DDBD0775F1004250EB56
:101750000E5051EB045111F5801F5CBF41EA0C01A2
:10176000F0BD4CF07F6141F0E0410020F0BDBD07CD
:101770006D0840EA0E5041F48011D4F10104B4F137
:1017800020060ADAC4F120060200E04001FA06F35E
:10179000E1401843B24015430EE0342C13DCC6F18F
:1017A000200445EA40056D0820FA06F2154321FAA7
:1017B00006F0A1400D43002175F1004250F10000F8
:1017C00051EB0C01F0BD00205FEA0C01F0BDCFB978
:1017D00092185B41B3FA83F704BFB2FA82F6BF19DD
:1017E0000B3FB7F120062FBF02FA06F3BB40C7F14B
:1017F000200622FA06F638BF3343BA401CB1E4197A
:10180000641E33E77F4231F00041B1FA81F404BF36
:10181000B0FA80F6A4190B3CB4F120062FBF00FAF1
:1018200006F1A140C4F1200620FA06F638BF314384
:10183000A0403C1B1AE7AC421ABF05EA1357AF425F
:1018400012E050EA41061CBF52EA4306BFE750EAE5
:101850004107304661461CBF41EA0551F0BD52EADE
:10186000430C08BFC143F0BD00204FF4001616EB37
:10187000410F98BF16EB430F08BF16EB410F24BF73
:10188000C14305E016EB430F0CBF61464CEA05511E
:10189000F0BD0000400D491840EA81200CD2490DEE
:1018A000A1F58061491C40F0004005DBD1F11F012A
:1018B00054BFC840C017704700207047014648B168
:1018C000B0FA80F18840C91CC1F58461090501EBBB
:1018D000D02140057047000070B44FF0004591EAF8
:1018E000030F40F177806B40841A71EB030603D23B
:1018F000001BB141121973414FF4001C1CEB410F46
:1019000034BF7CEB430442E00C0DA4EB1356352EA0
:101910004FDC45EAC323DB0A45EAC121C912B6F10F
:1019200020050DDD63FA05F6EB4086EA0305124259
:1019300018BF45F00105C01851F100010CD213E0A9
:1019400062FA06F5F2405540F3415A40B340F34085
:101950005A408018594107D349085FEA30005FEACE
:10196000350528BF45F0010501F58011420875F1E4
:10197000004250F1000041EB04514E0016F5001FEB
:1019800070BC38BF70470020090D090570471CEB7B
:10199000410F10D252EA43060BD0BCEB410F05D8E1
:1019A0000C0DAB43661E342EB6DD02E0AB4380184F
:1019B000594170BC704770BC7047000001487047C7
:1019C00000000000D00BFF1F012000F0B7B800009E
:1019D00070470000841A71EB030604D26E40001BAE
:1019E000B141121973414FF4001C1CEB410F34BF7D
:1019F0007CEB430682E00C0DA4EB1356362E7BDC09
:101A0000012E45EAC32341DC43EA525312BFD202FE
:101A100092025B08240545EAC12141EA5051D2EB0C
:101A2000C020994125D407D1B0FA80F610FA06F10A
:101A300062D00020203608E0B1FA81F6B140C6F14C
:101A4000200220FA02F21143B0404FEAF474B4EBE2
:101A5000465434F001064FEA74040AD8D6F500164D
:101A6000760D04F00044F04061FA06F25040F14077
:101A70004840C00A40EA415021F0004128BF5FEAD7
:101A8000500550F1000044EBD12135E0DB0A45EA76
:101A9000C121C90AB6F120050EDD42EA0242120C4C
:101AA000C5F1200603FA06F6EB4042EA06056D4250
:101AB000984161F100010DE062FA06F5F2405540EF
:101AC00063FA06FC82EA0C02F3405A406D429041F0
:101AD00061EB030111F4801F05D1641E620502D081
:101AE0006D004041494121F48011430875F10043E4
:101AF00050F1000041EB045170BC70471CEB410FEA
:101B000015D223F0004352EA43060BD04FEA4C0CA7
:101B1000BCEB410F04D80C0D661E342EB7DDEBE78D
:101B2000801A994150EA410608BF0021E4E708BF46
:101B30001CEB430F28BF6FF00001DDE720210903F4
:101B400026311820ABBEF9E70000000000000000BD
:101B50000000000000000000000000000000000085
:101B60000000000000004E6F6E4D61736B61626C8F
:101B70006500000000486172644661756C74000085
:101B8000000000004D656D4D616E6167656D656EAD
:101B90007400004275734661756C740000000000AB
:101BA000000055736167654661756C740000000044
:101BB0000000000000000000000000000000000025
:101BC0000000000000000000000000000000000015
:101BD0000000000000000000000000000000000005
:101BE0000000000000000000000000000053564309
:101BF000616C6C000000000000000000446562752C
:101C0000674D6F6E69746F72000000000000000085
:101C10000000000000000000000050656E64535694
:101C20000000000000000000005379735469636BEA
:101C30000000000000000000444D413000000000A2
:101C400000000000000000444D4131000000000091
:101C5000000000000000444D413200000000000080
:101C60000000000000444D4133000000000000006F
:101C700000000000444D413400000000000000005E
:101C8000000000444D41350000000000000000004D
:101C90000000444D4136000000000000000000003C
:101CA00000444D413700000000000000000000002B
:101CB000444D4138000000000000000000000044D6
:101CC0004D41390000000000000000000000444DBC
:101CD00041313000000000000000000000444D4190
:101CE000313100000000000000000000444D41318F
:101CF0003200000000000000000000444D4131337C
:101D000000000000000000000000444D413134009C
:101D1000000000000000000000444D41313500008B
:101D20000000000000000000444D415F4572726FEA
:101D3000720000000000004D434D00000000000054
:101D40000000000000004654464C00000000000067
:101D50000000000000526561645F436F6C6C697342
:101D6000696F6E004C56445F4C56570000000000EF
:101D70000000004C4C570000000000000000000074
:101D800000005761746368646F6700000000000022
:101D900000524E470000000000000000000000005C
:101DA00049324330000000000000000000000049FC
:101DB00032433100000000000000000000005350DA
:101DC00049300000000000000000000000535049AE
:101DD00031000000000000000000000053504932B4
:101DE000000000000000000000000043414E305F92
:101DF0004F525F4D425F6275660043414E305F4215
:101E000075735F4F666600000043414E305F457258
:101E1000726F72000000000043414E305F54785FE3
:101E20005761726E696E6743414E305F52785F57FB
:101E300061726E696E6743414E305F57616B655FDB
:101E40005570000000526573657276656435310027
:101E500000000000526573657276656435320000DB
:101E600000000043414E315F4F525F4D425F62754B
:101E7000660043414E315F4275735F4F66660000F6
:101E80000043414E315F4572726F720000000000E6
:101E900043414E315F54785F5761726E696E67439C
:101EA000414E315F52785F5761726E696E67434190
:101EB0004E315F57616B655F55700000005265736E
:101EC00065727665643539000000000052657365FF
:101ED000727665643630000000000055415254307F
:101EE0005F52585F54580000000055415254305F13
:101EF00045525200000000000055415254315F52DB
:101F0000585F54580000000055415254315F45520B
:101F10005200000000000055415254325F52585F99
:101F200054580000000055415254325F455252004F
:101F3000000000000055415254335F52585F54581E
:101F40000000000055415254335F455252000000DA
:101F500000000055415254345F52585F54580000FD
:101F6000000055415254345F4552520000000000B9
:101F70000055415254355F52585F545800000000DC
:101F800055415254355F4552520000000000004157
:101F90004443300000000000000000000000414405
:101FA00043310000000000000000000000434D50DD
:101FB000300000000000000000000000434D5031E0
:101FC0000000000000000000000000434D503200FF
:101FD0000000000000000000000046544D300000EA
:101FE00000000000000000000046544D31000000D9
:101FF000000000000000000046544D3200000000C8
:1020000000000000000000434D54000000000000EC
:1020100000000000000052544300000000000000D7
:102020000000000000526573657276656438330005
:102030000000000050495430000000000000000083
:102040000000005049543100000000000000000072
:102050000000504954320000000000000000000061
:102060000050495433000000000000000000000050
:102070005044423000000000000000000000005505
:1020800053423000000000000000000000005553E3
:1020900042444344000000000000000000454E455B
:1020A000545F313538385F54696D6572454E45541B
:1020B0005F5472616E736D69740000454E45545FE4
:1020C00052656365697665000000454E45545F457D
:1020D00072726F720000000000493253300000003D
:1020E00000000000000000005344484300000000CE
:1020F00000000000000000444143300000000000E8
:1021000000000000000044414331000000000000D6
:10211000000000000054534930000000000000009F
:10212000000000004D4347000000000000000000D8
:102130000000004C5054696D657200000000000002
:1021400000005265736572766564313032000000BC
:1021500000504F52544100000000000000000000F9
:10216000504F525442000000000000000000005098
:102170004F52544300000000000000000000504F88
:1021800052544400000000000000000000504F5274
:102190005445000000000000000000005265736517
:1021A00072766564313038000000005265736572E4
:1021B00076656431303900000000526573657276CF
:1021C00065643131300000000052657365727665D8
:1021D00064313131000000005265736572766564C8
:1021E00031313200000000526573657276656431EA
:1021F00031330000000052657365727665643131D9
:1022000034000000005265736572766564313135C3
:1022100000000000526573657276656431313600E6
:1022200000000052657365727665643131370000D5
:1022300000005265736572766564313138000000C4
:1022400000526573657276656431313900000000B3
:10225000008003400090034000800B4000900B4042
:1022600000F00F4040F00F4080F00F40C0F00F40F2
:1022700000F10F4066000A1D3200070164000710DC
:102280006E000406780004088200040A8C00040C26
:102290009600040EA0000410AA000412B400041456
:1022A000BE000416C8000418D200041ADC00041C86
:1022B000E100041DE600041EEB00041FF4000317F8
:1022C000FA000318130101062C0102140001090889
:1022D0000090044000A0044000B0044000C004404E
:1022E00000D0044000A0064000B0064000C00640F8
:1022F00000D0064000A00E4000B00E406A6E6B6C2D
:10230000676D4E4F34353637243D0000243D0000C4
:10231000243D0000243D0000243D0000243D000039
:10232000243D0000FFFFFFFFFFFFFFFF263D0000F1
:10233000243D0000243D0000FFFFFFFFFFFF0000E1
:1023400002040101580EFF1FA80EFF1F580EFF1FA9
:10235000580EFF1F00000000580EFF1F0000000075
:102360004C0CFF1F380CFF1F000000000000000095
:10237000000000000000000000000000000000005D
:10238000000000000000000038B504000D0020002F
:1023900040B2002806D002286BD04DD3032800F0AD
:1023A0008580CBE0DFF86404006850F08070DFF8CF
:1023B0005C140860280040B200280BD0022815D019
:1023C0000ED304281ED017D3062827D020D30728E1
:1023D0002AD02FE04FF48061412000F021FA2AE05A
:1023E0004FF44071042000F01BFA24E04FF44071D8
:1023F000052000F015FA1EE04FF44071062000F0B1
:102400000FFA18E04FF44071072000F009FA12E0CB
:102410004FF48061652000F003FA0CE04FF4806116
:10242000662000F0FDF906E04FF48061672000F0BF
:10243000F7F900E082E081E0DFF8D003006850F0B7
:102440000070DFF8C8130860280040B2002802D0EE
:10245000012806D00BE04FF440710C2000F0E0F9A9
:1024600006E04FF440710D2000F0DAF900E065E07D
:1024700064E0DFF89C03006850F08070DFF8901390
:102480000860280040B2002802D0012806D00BE0E6
:102490004FF440710A2000F0C3F906E04FF4407198
:1024A0000B2000F0BDF900E048E047E0DFF86003F2
:1024B000006850F00070DFF858130860280040B240
:1024C00000280BD0022815D00ED304281ED017D315
:1024D000062827D020D307282AD02EE04FF4C06149
:1024E000852000F09DF928E04FF4C061862000F0BF
:1024F00097F922E04FF4C061872000F091F91CE0C9
:102500004FF4C061882000F08BF916E04FF4C061F1
:10251000892000F085F910E04FF4C0618A2000F0B6
:102520007FF90AE04FF4C0618B2000F079F904E0F4
:102530004FF4C0618C2000F073F9FFE731BD2DE945
:10254000F84F04000D0016001F00200040B20028C4
:1025500015D0200040B2012803D0200040B202284C
:1025600003D1280040B2022809DB200040B2032832
:1025700005D04FF4C271DFF89C0200F0C8F92900C1
:1025800049B2200040B2FFF7FFFEDFF88C02D0F81E
:1025900000904FF47A7000FB09F94846000CB0FB3C
:1025A000F6FA5FF0000B504680B250FA0BF00128AB
:1025B00002DB1BF1010BF6E75846C0B2082805DB29
:1025C00040F29F11DFF84C0200F0A1F9484630FAC2
:1025D0000BF0B0FBF6F0210049B2002905D002292A
:1025E00017D00CD303291ED027E0010089B2491C63
:1025F00001FB07F16422B1FBF2F188461DE0010006
:1026000089B2491C01FB07F16422B1FBF2F1884653
:1026100013E0010089B2491C01FB07F16422B1FB00
:10262000F2F1884609E0010089B2491C01FB07F17B
:102630006422B1FBF2F18846FFE7DFF8E0112200E7
:1026400052B251F822102A0052B201EBC201DFF857
:10265000CC2123005BB252F823202B005BB202EBAB
:10266000C302D26832F00402CA60DFF8B01122005F
:1026700052B251F822102A0052B201EBC2012822B4
:10268000CA605946C9B211F0070151F00801DFF8DC
:102690008C2123005BB252F823201160010089B223
:1026A000DFF8782123005BB252F8232091600021EB
:1026B000DFF8682123005BB252F82320D164DFF8F1
:1026C0005C11220052B251F822102A0052B201EBE2
:1026D000C201424692B20A610021DFF84021230084
:1026E0005BB252F823205160BDE8F18F2DE9F04133
:1026F0000500884616000024280040B2002815D0A6
:10270000280040B2012803D0280040B2022803D19B
:10271000404640B2022809DB280040B2032805D019
:1027200040F2E311DFF8EC0000F0F1F8280040B2CD
:10273000002805D0022815D00BD303281BD023E096
:10274000652E05D340F2E911DFF8C80000F0DFF88C
:102750001AE0652E05D340F2ED11DFF8B80000F065
:10276000D6F811E0652E05D340F2F111DFF8A40090
:1027700000F0CDF808E0652E05D34FF4FB71DFF8CB
:10278000940000F0C4F8FFE7DFF89000290049B298
:1027900050F8210080680400002CF5D0280040B2D9
:1027A000002805D0022813D00AD3032818D01FE030
:1027B000601C00FB06F06421B0FBF1F0070017E09D
:1027C000601C00FB06F06421B0FBF1F007000FE095
:1027D000601C00FB06F06421B0FBF1F0070007E08D
:1027E000601C00FB06F06421B0FBF1F00700FFE77E
:1027F000DFF82800290049B250F82100414649B2CB
:1028000000EBC1000761BDE8F08100003C8004409E
:10281000308004403C390000500EFF1F180BFF1F92
:1028200010B42E4A13684FF400740200D2B2520959
:1028300094402343294A1360294A0300DBB25B1109
:1028400052F82330012410F01F029440C3F8A04036
:10285000234A0300DBB25B1152F823200300DBB2F2
:1028600013F01F0342F8231010BC704710B41B4A2A
:1028700013684FF400740200D2B25209944023430B
:10288000164A1360164A0300DBB25B1152F823307C
:10289000012410F01F029440C3F8A04031F4E0611D
:1028A0000F4A0300DBB25B1152F823200300DBB2B6
:1028B00013F01F0352F8232012F4E0621143084A78
:1028C0000300DBB25B1152F823200300DBB213F0EC
:1028D0001F0342F8231010BC7047000038800440EA
:1028E000980BFF1FDFF800F0810CFF1FDFF800F0EE
:1028F000A50CFF1FBFF34F8F4748016811F4E0613B
:102900004648014344480160BFF34F8FFEE738B5A6
:1029100004000D00002000F08FF82A00210040483C
:1029200000F0CAF8002000F0A7F84FF47A7000F029
:10293000F2F8F2E738B504000D00210049B2032097
:1029400000F01CFA200032BD10B50024042000F075
:1029500031FA042000F06AFA002842D1002000F089
:102960006BF8042000F062FA012801D10120040074
:10297000002000F081F82B4800F09EF84FF4FA7028
:1029800000F0C9F82000C0B20128EAD1042000F00C
:102990004DFA0028E5D1042000F048FA002806D1BD
:1029A000002000F069F8642000F0B5F8F3E7042097
:1029B00000F03CFA012806D1002000F05DF832203A
:1029C00000F0A9F8F3E7184800F076F8FFF78AFF5F
:1029D000642000F0A0F80020FFF788FFFFF78AFFCF
:1029E000BFE710BD10B511480468012000F024F8BD
:1029F000012000F041F80E492200D2B20F204243DC
:102A00000A442100C9B20B4800F056F84FF47A701E
:102A100000F081F8ECE700000CED00E00400FA059E
:102A20005C3C0000043D0000903C000004ED00E030
:102A30001004FF1FF83B000010B50400200040B256
:102A4000042808DA012201211A4823005BB2C05C85
:102A500000F004FA0FE0042004002000441E40B2FD
:102A6000002808D001220121124823005BB2C05C7B
:102A700000F0F4F9F1E710BD10B50400200040B2F9
:102A8000042806DA0B48210049B2405C00F047FAFE
:102A90000DE0042004002000441E40B2002806D0AF
:102AA0000448210049B2405C00F039FAF3E710BD58
:102AB00000000000CC0BFF1F0EB4C0B5024603A8F7
:102AC00000210190009101AB0121044878440C30B1
:102AD000FDF7A2FC06BC5DF810FB00BF071200006A
:102AE00010B50400002C15D0B4F1807F03D3292148
:102AF0000F48FFF70CFF00200E4908600E480460E5
:102B000000200E49086005200A490860094800684D
:102B1000C003FBD510BD10B504002000441E0028E2
:102B200004D007480068FFF7DBFFF6E710BD0000A0
:102B3000F837000010E000E014E000E018E000E0EA
:102B4000480EFF1F2DE9F04104000D00200040B2A7
:102B5000002808D002282CD018D304284FD03BD30B
:102B600005285FD071E0DFF83402006850F480601F
:102B7000DFF8281208604FF440716620FFF750FE1E
:102B80004FF440716720FFF74BFE5EE0DFF80C0268
:102B9000006850F40060DFF8041208604FF44071E0
:102BA0004320FFF73DFE4FF440714420FFF738FE0D
:102BB0004BE0DFF8E801006850F48050DFF8DC11EA
:102BC00008604FF440716320FFF72AFE4FF4407114
:102BD0006220FFF725FE38E0DFF8C001006850F4FE
:102BE0000050DFF8B81108604FF440715020FFF733
:102BF00017FE4FF440715120FFF712FE25E0DFF879
:102C0000A001006850F48060DFF8941108604FF470
:102C100040714E20FFF704FE4FF440714F20FFF744
:102C2000FFFD12E0DFF87801006850F40060DFF883
:102C3000701108604FF440718920FFF7F1FD4FF4E7
:102C400040718820FFF7ECFDFFE7DFF85801210015
:102C500049B250F82100C07810F0F300DFF84411B9
:102C6000220052B251F82210C870DFF8380121005A
:102C700049B250F821008078DFF82811220052B2C2
:102C800051F822108870200040B2002803D02000A4
:102C900040B2012806D1DFF8100106684FF47A70BF
:102CA000464305E0DFF8040106684FF47A704643B6
:102CB0002801B6FBF0F7380080B2B0F5005F02DB08
:102CC00041F6FF700700B6FBF5F8380080B2B8EBAC
:102CD0000018404680B2202804DBDC21DFF8D00059
:102CE000FFF715FEDFF8BC00210049B250F82100C3
:102CF000007810F0E000C7F304210143DFF8A420BE
:102D000023005BB252F823201170DFF898102200E4
:102D100052B251F822104F702249220052B251F89B
:102D20002210897A11F0E00118F01F020A431D4BAE
:102D3000A4464FFA8CFC53F82C309A72194A23009F
:102D40005BB252F82320127C52F08802154BA44645
:102D50004FFA8CFC53F82C301A74124A23005BB2E1
:102D600052F82320D27852F00C020E4BA4464FFAB0
:102D70008CFC53F82C30DA70BDE8F081094A03006E
:102D80005BB252F8232012791206F7D5054A0300E8
:102D90005BB252F82320D1717047000034800440A8
:102DA00028800440AC0BFF1F480EFF1F500EFF1F72
:102DB0007C3A000010B50400200040B208280FDA69
:102DC00000220021244823005BB2C05C00F046F8DA
:102DD00003212148220052B2805CFFF747FD16E034
:102DE000082004002000441E40B200280FD000221A
:102DF0000021194823005BB2C05C00F02FF80321CA
:102E00001548220052B2805CFFF730FDEAE710BDA2
:102E100010B504001048210049B2405C00F09DF854
:102E2000002801D1002000E0012010BD10B50400F1
:102E3000200040B2FFF7ECFF00280AD10A20FFF77C
:102E40006AFE200040B2FFF7E3FF002801D1002016
:102E500000E0012010BD0000C40BFF1F70B504008E
:102E60000D0016004FF480712000C0B2FFF7D8FCAF
:102E7000280040B2002813D148482100C9B24911A6
:102E800050F8211045482200D2B2521150F82200C9
:102E90004269012314F01F0083409A434A613DE0D8
:102EA0003E482100C9B2491150F821103B48220088
:102EB000D2B2521150F822004269012314F01F00CF
:102EC00083401A434A613000C0B2002813D133480E
:102ED0002100C9B2491150F821000168012214F003
:102EE0001F00824091432D482200D2B2521150F867
:102EF0002200016012E029482100C9B2491150F8AE
:102F000021000168012214F01F0082401143234870
:102F10002200D2B2521150F82200016070BD10B5EB
:102F200004001E482100C9B2491150F8210040692F
:102F300014F01F01C840C00703D47B211848FFF7D5
:102F4000E6FC16482100C9B2491150F821100122AF
:102F500014F01F008240CA6010BD10B504000F4875
:102F60002100C9B2491150F82100406914F01F0135
:102F7000C840C00703D58C210948FFF7C8FC0748A3
:102F80002100C9B2491150F82100006914F01F0452
:102F9000E04010F0010010BD00000000280BFF1FF2
:102FA000DC390000DFF800F0F90DFF1FDFF84C14EA
:102FB000020052B231F82210020052B2012AC0F2CD
:102FC000C081020052B2162A80F2BB810022DFF8D3
:102FD00030341A700A0092B2652A04DA0022DFF84F
:102FE00020345A709BE00A0092B2C92A04DA012206
:102FF000DFF80C345A7092E00A0092B240F22D13BE
:103000009A4204DA0222DFF8F8335A7087E00A00A5
:1030100092B240F291139A4204DA0322DFF8E033CD
:103020005A707CE00A0092B240F2F5139A4204DA38
:103030000422DFF8CC335A7071E00A0092B240F2F9
:1030400059239A4204DA0522DFF8B4335A7066E055
:103050000A0092B240F2BD239A4204DA0622DFF857
:10306000A0335A705BE00A0092B240F221339A42D8
:1030700004DA0722DFF888335A7050E00A0092B26F
:1030800040F285339A4204DA0822DFF874335A702A
:1030900045E00A0092B240F2E9339A4204DA09228A
:1030A000DFF85C335A703AE00A0092B240F24D43C6
:1030B0009A4204DA0A22DFF848335A702FE00A00F5
:1030C00092B240F2B1439A4204DA0B22DFF8303375
:1030D0005A7024E00A0092B240F215539A4204DA80
:1030E0000C22DFF81C335A7019E00A0092B240F249
:1030F00079539A4204DA0D22DFF804335A700EE055
:103100000A0092B240F2DD539A4204DA0E22DFF84E
:10311000F0325A7003E00F22DFF8E4325A700A00EE
:1031200092B2332A04DA0022DFF8D4329A7086E0B1
:103130000A0092B2652A03DA0122B14B9A707EE04E
:103140000A0092B2972A03DA0222AD4B9A7076E017
:103150000A0092B2C92A03DA0322A94B9A706EE0E0
:103160000A0092B2FB2A03DA0422A54B9A7066E0A9
:103170000A0092B240F22D139A4203DA0522A04BC4
:103180009A705CE00A0092B240F25F139A4203DA4E
:1031900006229B4B9A7052E00A0092B240F29113C1
:1031A0009A4203DA0722964B9A7048E00A0092B2DC
:1031B00040F2C3139A4203DA0822914B9A703EE020
:1031C0000A0092B240F2F5139A4203DA09228C4BBC
:1031D0009A7034E00A0092B240F227239A4203DA4E
:1031E0000A22874B9A702AE00A0092B240F25923D1
:1031F0009A4203DA0B22824B9A7020E00A0092B2C4
:1032000040F28B239A4203DA0C227D4B9A7016E02F
:103210000A0092B240F2BD239A4203DA0D22784BA3
:103220009A700CE00A0092B240F2EF239A4203DA5D
:103230000E22734B9A7002E00F22714B9A700A00B3
:1032400092B21A2A03DA00226D4BDA7079E00A0092
:1032500092B2332A03DA0122694BDA7071E00A0074
:1032600092B24C2A03DA0222654BDA7069E00A0056
:1032700092B2652A03DA0322614BDA7061E00A0038
:1032800092B27E2A03DA04225D4BDA7059E00A001A
:1032900092B2972A03DA0522594BDA7051E00A00FC
:1032A00092B2B02A03DA0622554BDA7049E00A00DE
:1032B00092B2C92A03DA0722514BDA7041E00A00C0
:1032C00092B2E22A03DA08224D4BDA7039E00A00A2
:1032D00092B2FB2A03DA0922494BDA7031E00A0084
:1032E00092B2B2F58A7F03DA0A22454BDA7028E0FF
:1032F0000A0092B240F22D139A4203DA0B22404B9D
:10330000DA701EE00A0092B2B2F5A37F03DA0C2253
:103310003B4BDA7015E00A0092B240F25F139A421A
:1033200003DA0D22364BDA700BE00A0092B2B2F5E6
:10333000BC7F03DA0E22324BDA7002E00F22304BF0
:10334000DA70704710B50400200040B2FFF72EFE7F
:103350002C48007810F0FD002A49087029480078B0
:1033600050F0100027490870B820274908702748F6
:103370000078C006FBD425480078C0B2C0F38100B5
:103380000228F8D11E48C3781D4882781C4841782D
:103390001B480078FFF706FE1848210049B200EBF1
:1033A0008100807810F00700194908701348210047
:1033B00049B200EB8100C07810F01F0050F04000CF
:1033C00014490870114800788006FBD50F48007832
:1033D0004006FBD50C48007810F03F000A49087001
:1033E0000A480078C0B2C0F381000328F8D103482E
:1033F00064B230F82400C0B210BD00003C0BFF1FC7
:10340000940BFF1F01400640004006400640064066
:103410000440064005400640DFF800F0172B00008E
:10342000DFF800F00F290000F020564908705548D9
:1034300000780006FBD55348007810F0710F01D0DA
:10344000002000E00120704780B54F48006850F42C
:1034500000204D4908604B4800780006FBD5F0205D
:10346000484908700A20FFF7D7FF01BD1CB50400CA
:10347000210089B24FF48050414300910920434913
:1034800008709DF80200424908709DF8010041490A
:1034900008709DF8000040490870FFF7C5FF00283C
:1034A00001D100200FE0200080B200280AD15FF097
:1034B000FF327FF001034FF48161200080B200F001
:1034C00003F800E0012016BDFEB506000F00140051
:1034D0001D00310089B24FF48050414311FA87F04A
:1034E0000190380080B2082190FBF1F201FB12003C
:1034F000002803D0EA212948FFF792FF380080B264
:1035000041F20101884203DBEC212448FFF788FFE8
:103510009DF806001E4908709DF805001D490870B9
:103520009DF804001C49087000949DF803001C4994
:1035300008709DF802001B4908709DF801001A49A7
:1035400008709DF800001949087007200F4908709D
:1035500000959DF80300164908709DF80200154972
:1035600008709DF80100144908709DF80000134987
:103570000870FFF759FF002801D1002000E001206A
:10358000FEBD00000000024004F0014007000240C0
:103590000600024005000240040002409C38000082
:1035A0000B0002400A0002400900024008000240ED
:1035B0000F0002400E0002400D0002400C000240CD
:1035C00070B4114C2468104D2D6855F47F050E4ED3
:1035D00035600D0615F0706555EA0075160516F490
:1035E000700635431E0416F470263543074E3560C9
:1035F00000252E00F6B29E4201D26D1CF9E7024E64
:10360000346070BC704700BF00F00140448004404B
:1036100080B500F08DF800F02AF800F00AF8FFF706
:1036200093F9012201210420FFF718FC00F0A2F811
:10363000FEE780B50C20FFF785FE2F4908602E4875
:1036400001684FF47A7041432C4801602B480068B0
:103650002B490968C1F30361491CB0FBF1F029490A
:1036600008605FF4E1310320FFF76CFA01BD2DE93A
:10367000F0412548254988420CD000200400B4F5CB
:10368000826F07D2214850F824001F4941F82400D6
:10369000641CF4E71C4800F099F81D4B1D4A1E49B4
:1036A0008E1A3000461E002804D010781870521C64
:1036B0005B1CF6E7194D1A4C671B3800471E0028A3
:1036C00003D0002028706D1CF7E7DFF858C0DFF842
:1036D00058E0DFF85880B8EB0E063000461E002890
:1036E00008D09EF800008CF800001EF1010E1CF1BD
:1036F000010CF2E7BDE8F0814C0EFF1F480EFF1FE2
:1037000044800440500EFF1F0000FF1F0000000017
:103710001004FF1F481B000088230000480EFF1FF5
:10372000A80EFF1F500CFF1F1834000010360000B9
:1037300080B500F008F80D4801884FF6FE70014092
:103740000A48018001BDEFF3118172B64CF220509E
:10375000074A10804DF62810054A10800800C0B2B4
:10376000002800D162B6704700000000002005402C
:103770000E20054010B56423642200210120FEF7CD
:10378000DEFE0D2004002000C0B219280CDA220051
:10379000D2B2D2F1640200210120FEF7A7FFC820B7
:1037A000FFF7B9F9641CEEE72000C0B20E28E8DB91
:1037B0002200D2B2D2F1640200210120FEF796FF6E
:1037C000C820FFF7A8F9641EEEE7000010B504005A
:1037D0004FF4007094FBF0F100FB1140002803D07F
:1037E0001E210348FFF793F80248046010BD000053
:1037F0001C3B000008ED00E0443A5CE9878EE7815D
:10380000AB4B3630E8B584E696995C4B36305CE4D9
:10381000BBA3E7A0815CE58E86E58FB2E78988E6E9
:103820009CAC5CE5B1B1E5A4964B3630E58F82E8FF
:103830008083E4BBA3E7A08156352E32EFBC88E637
:1038400094AFE68C814658E5928C444E5AEFBC8981
:103850005CE4B9A6E5A496E79A84E58F82E88083C4
:10386000E4BE8BE7A88B5CE888B5E69CBA5CE88888
:10387000B5E69CBAE5B7A6E58FB3E69186E58AA8DA
:103880005C436869705C7372635C4D4B36305F53A8
:1038900079735469636B2E6300000000443A5CE95D
:1038A000878EE781AB4B3630E8B584E696995C4B62
:1038B00036305CE4BBA3E7A0815CE58E86E58FB281
:1038C000E78988E69CAC5CE5B1B1E5A4964B36305F
:1038D000E58F82E88083E4BBA3E7A08156352E32D2
:1038E000EFBC88E694AFE68C814658E5928C444E56
:1038F0005AEFBC895CE4B9A6E5A496E79A84E58F03
:1039000082E88083E4BE8BE7A88B5CE888B5E69C00
:10391000BA5CE888B5E69CBAE5B7A6E58FB3E69150
:1039200086E58AA85C436869705C7372635C4D4B82
:1039300036305F666C6173682E630000443A5CE960
:10394000878EE781AB4B3630E8B584E696995C4BC1
:1039500036305CE4BBA3E7A0815CE58E86E58FB2E0
:10396000E78988E69CAC5CE5B1B1E5A4964B3630BE
:10397000E58F82E88083E4BBA3E7A08156352E3231
:10398000EFBC88E694AFE68C814658E5928C444EB5
:103990005AEFBC895CE4B9A6E5A496E79A84E58F62
:1039A00082E88083E4BE8BE7A88B5CE888B5E69C60
:1039B000BA5CE888B5E69CBAE5B7A6E58FB3E691B0
:1039C00086E58AA85C436869705C7372635C4D4BE2
:1039D00036305F66746D2E6300000000443A5CE987
:1039E000878EE781AB4B3630E8B584E696995C4B21
:1039F00036305CE4BBA3E7A0815CE58E86E58FB240
:103A0000E78988E69CAC5CE5B1B1E5A4964B36301D
:103A1000E58F82E88083E4BBA3E7A08156352E3290
:103A2000EFBC88E694AFE68C814658E5928C444E14
:103A30005AEFBC895CE4B9A6E5A496E79A84E58FC1
:103A400082E88083E4BE8BE7A88B5CE888B5E69CBF
:103A5000BA5CE888B5E69CBAE5B7A6E58FB3E6910F
:103A600086E58AA85C436869705C7372635C4D4B41
:103A700036305F6770696F2E63000000443A5CE97E
:103A8000878EE781AB4B3630E8B584E696995C4B80
:103A900036305CE4BBA3E7A0815CE58E86E58FB29F
:103AA000E78988E69CAC5CE5B1B1E5A4964B36307D
:103AB000E58F82E88083E4BBA3E7A08156352E32F0
:103AC000EFBC88E694AFE68C814658E5928C444E74
:103AD0005AEFBC895CE4B9A6E5A496E79A84E58F21
:103AE00082E88083E4BE8BE7A88B5CE888B5E69C1F
:103AF000BA5CE888B5E69CBAE5B7A6E58FB3E6916F
:103B000086E58AA85C436869705C7372635C4D4BA0
:103B100036305F756172742E63000000443A5CE9D0
:103B2000878EE781AB4B3630E8B584E696995C4BDF
:103B300036305CE4BBA3E7A0815CE58E86E58FB2FE
:103B4000E78988E69CAC5CE5B1B1E5A4964B3630DC
:103B5000E58F82E88083E4BBA3E7A08156352E324F
:103B6000EFBC88E694AFE68C814658E5928C444ED3
:103B70005AEFBC895CE4B9A6E5A496E79A84E58F80
:103B800082E88083E4BE8BE7A88B5CE888B5E69C7E
:103B9000BA5CE888B5E69CBAE5B7A6E58FB3E691CE
:103BA00086E58AA85C436869705C7372635C6D69C2
:103BB00073632E630000000019E050F8042BD30754
:103BC00044BFA9F101039A18091F0023042942F8F0
:103BD000043BF9D25FEA817C134604D54FF0000C18
:103BE000A2F800C09B1CC90744BF0021197050F8FF
:103BF000041B0029E1D170470A2A2A2A2A64656633
:103C000061756C745F69737220656E74657265644A
:103C1000206F6E20766563746F722025642A2A2ACD
:103C20002A2A0A0A257320496E74657272757074A7
:103C30000000000010B5074979441831064C7C4457
:103C4000163404E00A68081D114488470146A14261
:103C5000F8D110BD2C0000003800000041737365DE
:103C60007274696F6E206661696C656420696E208C
:103C70002573206174206C696E652025640A00003C
:103C800039FFFFFF60000000480EFF1F000000002A
:103C90000ABDF8D0D0BDE2CBF8B2D9D7F7A3ACC7F4
:103CA000EBD6D8D0C2CBA2C8EBB9CCBCFE0000008A
:103CB00000F00DF8002801D0FFF7BCFFAFF3008043
:103CC0000020AFF30080FFF755FD00F002F801205F
:103CD000704700F001B8000007463846FDF72EFF98
:103CE000FBE738B504460D46284600F005F8A84223
:103CF00018BF0024204632BD0149FEF71BBE00BF9D
:103D0000080CFF1F0ABDF8C8EBCBC0D1ADBBB7B5DF
:103D1000C8B4FDA3A1000000AFF30080AFF30080A2
:083D2000FFF7C6FF00002E00B2
:0400000500003D19A1
:00000001FF
